:100000000C9434000C9451000C9451000C94CC02CC
:100010000C9451000C9451000C9451000C9451001C
:100020000C9451000C9451000C9451000C9451000C
:100030000C9451000C9451000C9451000C945100FC
:100040000C9451000C9451000C9451000C945100EC
:100050000C9451000C9451000C9451000C945100DC
:100060000C9451000C94510011241FBECFEFD8E026
:10007000DEBFCDBF11E0A0E0B1E0E4EDF6E002C0EC
:1000800005900D92AE30B107D9F712E0AEE0B1E0C5
:1000900001C01D92A831B107E1F70E9453000C94F2
:1000A00068030C940000EF92FF920F931F93DF936D
:1000B000CF93CDB7DEB72E970FB6F894DEBF0FBE45
:1000C000CDBF0E94500320E08E010F5F1F4F8CE2D6
:1000D000E82E81E0F82E222371F4D801E0E0F1E06F
:1000E0008EE001900D928150E1F7C8016EE00E9410
:1000F000860221E013C080E00E94BC0281E00E94E1
:10010000BC0282E00E94BC0283E00E94BC0284E048
:100110000E94BC0285E00E94BC0220E088E893E1D6
:10012000F7013197F1F70197D9F7D5CF10920E016A
:100130001092100110920F011092120110921101F1
:1001400080E090E0FC01EE0FFF1FE25FFE4F1682A1
:100150001582019682339105A9F7109277011092CA
:10016000780110927A011092790110927C0110921C
:100170007B0110927E0110927D0110927F011092FE
:10018000800180E090E0FC01EF57FE4F1082019665
:1001900086399105C1F710921702089510920E0149
:1001A0001092100110920F01089580E090E0FC0180
:1001B000EE0FFF1FE25FFE4F16821582019682331B
:1001C0009105A9F710927701089580E090E0FC0175
:1001D000EF57FE4F1082019686399105C1F71092B4
:1001E00017020895882311F420980895209A0895FD
:1001F000882311F428980895289A089583B181706E
:100200000895882311F4209A089520980895289835
:10021000209820980895E8E6F0E08081816080834E
:10022000D89AEBE6F0E080818E7F80837894089501
:10023000EBE6F0E08081816080830895EBE6F0E0FA
:1002400080818E7F8083089580916B0081700895F6
:1002500083B18095817008950895089580E58A9509
:10026000F1F7089580E58A95F1F7089580EA8A9577
:10027000F1F708958CE291E00197F1F70895EBE62C
:10028000F0E080818E7F808380E58A95F1F780EAB7
:100290008A95F1F78081816080830895AC0120E028
:1002A00030E060E0E0E570EA209A8E2F8A95F1F761
:1002B0006B3021F053FD02C0209A01C02098872F97
:1002C0008A95F1F7220F331F83B190E0817090700F
:1002D000282B392B872F8A95F1F720988E2F8A9516
:1002E000F1F76F5F6C3019F0440F551FDDCF8CE2D2
:1002F00091E00197F1F7C901089580910F01909164
:100300001001880F991F9093100180930F01209185
:100310000F013091100183B190E081709070822BB9
:10032000932B9093100180930F01EFE0F1E0829105
:100330008F5F8083089580910E018C3010F480E0EF
:10034000089510920E0181E00895E0917701F0E0A8
:1003500080910F0190911001EE0FFF1FE25FFE4FA1
:10036000968385831092100110920F01809177017E
:100370008F5F80937701089580917701823368F0D1
:100380001092770180911101909112010196909342
:1003900012018093110181E00895809111019091E3
:1003A00012010196909312018093110180E008954B
:1003B000E0917701F0E080910F0190911001EE0F34
:1003C000FF1FE25FFE4F968385831092100110920B
:1003D0000F01809177018F5F809377010E94BC01AC
:1003E00080917701882379F1E0917701F0E0EE0FB9
:1003F000FF1FE45FFE4F8581968193FF24C081E05B
:1004000080937801E0917701F0E0EE0FFF1FE45F49
:10041000FE4F858196818070927090937A018093CF
:100420007901E0917701F0E0EE0FFF1FE45FFE4FEE
:10043000858196818E7F91709695879590937C01AA
:1004400080937B010895E0917701F0E0EE0FFF1FAC
:10045000E45FFE4F8581968192FF32C020E018C094
:10046000A22FB0E0FD01EE0FFF1FE25FFE4F85817E
:100470009681AF57BE4F8C93809117028F5F809308
:10048000170280911702863910F0109217022F5F21
:1004900080917701281720F310927801109277014C
:1004A000109214011092130110927A0110927901A6
:1004B00010927C0110927B0110927F0110928001BA
:1004C000089580916B008E7F80936B0080917D01F9
:1004D00090917E0193FF02C0209801C0209A8091E4
:1004E0007D0190917E01880F991F90937E018093EA
:1004F0007D0180EA982F9A95F1F78A95F1F7209877
:1005000080916B00816080936B000895EF92FF9261
:100510000F931F93CF93DF93182F092FE62E81E0BF
:1005200098E00E944E01212F302FC901EC01FF24D9
:100530000E2D10E00150104016C08F2D90E0288144
:100540008017910739F4822F90E0880F991F8160FE
:10055000946005C0822F90E0880F991F81600E94EF
:100560004E01F3942196FE1440F3DF91CF911F9139
:100570000F91FF90EF90089590E0880F991F816090
:100580009A600E944E0188EB9BE00197F1F78FEF94
:1005900097E00E944E0108951F920F920FB60F929E
:1005A00011242F933F934F935F936F937F938F9378
:1005B0009F93AF93BF93EF93FF9380916B0080FF66
:1005C00055C0189953C080917801813031F48091E1
:1005D000790190917A01892BE9F1209178012130FC
:1005E000C9F58091790190917A018050924091F5FE
:1005F00080917F01882371F480917B0190917C012F
:10060000880F991F8160946090937E0180937D0193
:1006100020937F010E946102809180018F5F80930F
:100620008001809180018C3008F110927801109245
:100630007701109214011092130110927A01109216
:10064000790110927C0110927B0110927F0110922F
:1006500080010CC00E943F010E947D0180910E012B
:100660008C3020F010920E010E94D801FF91EF9182
:10067000BF91AF919F918F917F916F915F914F91BA
:100680003F912F910F900FBE0F901F901895E82F5C
:10069000F0E0EF57FE4F8081089580911702089592
:1006A0000E9496000E9407010E940B01EBE6F0E019
:1006B00080818E7F808308950E9496000E940701AA
:1006C0000E940B01EBE6F0E0808181608083089559
:0406D000F894FFCFCC
:0E06D400000102030405060708090A0B0C0DBD
:00000001FF
