:100000000C9434000C9451000C9451000C94510049
:100010000C9451000C9453030C9451000C94510017
:100020000C9451000C9451000C9451000C9451000C
:100030000C9451000C9451000C9451000C945100FC
:100040000C9451000C9451000C94C7050C94510071
:100050000C9451000C9451000C9451000C945100DC
:100060000C9451000C94510011241FBECFEFD8E026
:10007000DEBFCDBF11E0A0E0B1E0E6E6FCE002C0EB
:1000800005900D92A630B107D9F711E0A6E0B1E0D6
:1000900001C01D92AB3DB107E1F70E9453000C94E3
:1000A00031060C940000CF93DF930E94900380E10F
:1000B00097E22CE231E0F9013197F1F70197D9F796
:1000C0000E949C03CCE2D1E00E9438018130A9F467
:1000D000CE010197F1F780E096E068E670E00E94BB
:1000E0009E0180E091E061E070E00E949E0180E06E
:1000F00093E067E070E00E949E0180E197E2FE01DC
:100100003197F1F7019701F3FACF1092360110926F
:100110003501109238011092370110923901109276
:100120003A0110923B01109241011092400110924D
:100130003D0110923C01109242011092430108953A
:100140001092360110923501109238011092370149
:1001500010923901089510924101109240011092BD
:100160003D0110923C01109242011092430108950A
:1001700080E090E0FC01EB5CFE4F1786019686392B
:100180009105C1F71092DA010895882311F4569869
:100190000895569A0895882311F45E9808955E9AFA
:1001A000089589B190E026E0969587952A95E1F724
:1001B00081700895882311F4569A089556980895E9
:1001C0005E9856985698549A5C980895E8E6F0E040
:1001D000808184608083DA9AEDE6F0E080818F7B15
:1001E000808378940895EDE6F0E0808180648083D8
:1001F0000895EDE6F0E080818F7B80830895809103
:100200006D0090E036E0969587953A95E1F781701C
:10021000089589B1829586958695837080958170C1
:10022000089508955C9A84E08A95F1F75C980895A2
:1002300080E58A95F1F7089580E58A95F1F70895AC
:1002400080EA8A95F1F7089588E592E00197F1F741
:100250000895EDE6F0E080818F7B808380E58A95CC
:10026000F1F780EA8A95F1F78081806480830895B0
:1002700080916D008F7B80936D0020E040E530EA37
:10028000569A842F8A95F1F75698832F8A95F1F71D
:1002900089B1932F9A95F1F75698942F9A95F1F783
:1002A00086FF03C02F5F283159F780916D0080646D
:1002B00080936D0088E592E00197F1F781E0089561
:1002C000AC0180916D008F7B80936D0020E030E069
:1002D00060E0E0E570EA569A8E2F8A95F1F76B3070
:1002E00021F053FD02C0569A01C05698872F8A9577
:1002F000F1F7220F331F89B190E0A6E0969587951C
:10030000AA95E1F781709070282B392B872F8A9559
:10031000F1F756988E2F8A95F1F76F5F6C3019F0D0
:10032000440F551FD8CF80916D00806480936D007D
:1003300088E592E00197F1F7C9010895682B792BC0
:10034000660F771FCB0181600E9460010895809144
:100350003501909136018F5F974079F410923B01FF
:1003600081E080933A01809342015C9A84E0982F67
:100370009A95F1F75C985C9A1BC080913C01909132
:100380003D0180509640F9F48091400190914101E7
:1003900088369105C1F480913A01813009F079C025
:1003A00010923A0180933B01809342015C9A84E071
:1003B000982F9A95F1F75C985C9A982F9A95F1F797
:1003C0005C985C9A2FC080913C0190913D018050D7
:1003D000944089F420913B01213069F480914001DF
:1003E0009091410190933F0180933E0120934201FF
:1003F0005C9A84E0E2CF80913C0190913D01805075
:100400009140B1F420913B01213091F48091400161
:100410009091410190933F0180933E0120934201CE
:100420005C9A84E0982F9A95F1F75C985C9A0EC0DC
:1004300080913C0190913D01892B71F480913B01A9
:10044000813051F4809342015C9A84E0982F9A9510
:10045000F1F75C985C9A13C080913C0190913D014A
:100460008050934081F480913B01813061F410927F
:100470003B0110923A01809342015C9A84E08A9594
:10048000F1F75C9808951092420110923B0110928E
:100490003A010895809139018B30C9F45C9A84E067
:1004A0008A95F1F75C9880914201813019F410929D
:1004B0004201569A80EA982F9A95F1F78A95F1F7BA
:1004C00056985C9A84E08A95F1F75C983DC00E944A
:1004D00029018091350190913601880F991F9093E1
:1004E0003601809335015C9A84E08A95F1F75C9837
:1004F000209135013091360189B190E046E0969522
:1005000087954A95E1F781709070822B932B909399
:10051000360180933501809139018A30A9F48091A8
:100520003501909136018070977090933D018093D2
:100530003C0180913501909136019070909341017A
:10054000809340010E94A701809139018F5F8093C1
:1005500039010895809139018C3010F480E00895BC
:1005600010923901109236011092350181E0089500
:100570000E944A02809139018C3018F42FEF3FEF2E
:100580000EC010923901109236011092350120915F
:100590003501309136011092360110923501C901B2
:1005A00008950E94B8029C018FEF2F3F3807C9F0D1
:1005B0003093380120933701C90180709770909370
:1005C0003D0180933C01822F8170809342013695DA
:1005D00027953070309341012093400181E0809352
:1005E000430108950E94D10280914301813009F0B6
:1005F00052C080913701909138018E7F9F708E5F3D
:100600009F40F1F41092360110923501109238019A
:10061000109237011092390110924101109240015D
:1006200010923D0110923C01109242011092430140
:100630005C9A84E0982F9A95F1F75C985C9A09C0CF
:1006400080913C0190913D018050964041F45C9A2C
:1006500084E0982F9A95F1F75C985C9A08C0809195
:100660003C0190913D01892B41F45C9A84E0982FE4
:100670009A95F1F75C985C9A09C080913C01909141
:100680003D018050934029F45C9A84E08A95F1F70B
:100690005C9810924301089508950895089508956F
:1006A0000895089508951F920F920FB60F92112486
:1006B0002F933F934F935F936F937F938F939F936A
:1006C000AF93BF93EF93FF9380916D0086FF0EC0B1
:1006D0004E990CC00E944A02809139018C3030F052
:1006E000109239011092360110923501FF91EF916D
:1006F000BF91AF919F918F917F916F915F914F913A
:100700003F912F910F900FBE0F901F901895E5E32A
:10071000F1E0E80FF11D878508958091DA010895D1
:100720000E9485000E94E0000E94E600EDE6F0E0F5
:1007300080818F7B808308950E9485000E94E00065
:100740000E94E600EDE6F0E08081806480830895F9
:1007500010920601E7E0F1E0119281E0EF30F80736
:10076000D9F71082118280E290E093A382A315A2B0
:1007700014A220E004C0EA5FFE4F13862F5F809131
:10078000310190913201E22FF0E0E817F90798F378
:100790000895089508959B01AC0160E673EE86E12B
:1007A00090E00E940F062150304040405040E0EC65
:1007B000F0E0808182608083BB27A52F942F832F58
:1007C0008093C5002093C4000895E1ECF0E080819F
:1007D0008860808386E08093C2000895E1ECF0E0B9
:1007E00080818061808386E08093C2000895E1EC7F
:1007F000F0E080818068808378940895982F8091BC
:10080000C00085FFFCCF9093C6000895DF93CF937F
:100810000F92CDB7DEB719828091C00084FF05C06A
:100820008091C600898381E008C08091C00083FF69
:1008300007C08091C600898382E08093060105C0CD
:100840008091C60089831092060189810F90CF9113
:10085000DF9108958091100108951092100108957C
:100860001F93CF93DF93AB01BC014F3F510561054F
:10087000710509F028F4E8E0F0E0C2E0D0E011C032
:10088000403080E0580781E0680780E0780728F072
:10089000E0E2F0E0C8E0D0E004C0E0E1F0E0C4E075
:1008A000D0E08091C00085FFFCCF80E38093C6003C
:1008B0008091C00085FFFCCF88E78093C60010E0E0
:1008C0001FC03497DB01CA010E2E04C0B695A79550
:1008D000979587950A94D2F790E08F7090708A3040
:1008E000910520F09C01295C3F4F03C09C01205DD5
:1008F0003F4F8091C00085FFFCCF2093C6001F5F53
:10090000812F90E08C179D07E0F2DF91CF911F912E
:100910000895CF92DF92EF92FF920F931F93CF93A0
:10092000DF93AB01BC014F3F51056105710509F033
:1009300010F497E00BC0403080E0580781E0680772
:1009400080E0780710F09FE101C09FE08091C00037
:1009500085FFFCCF80E38093C6008091C00085FFB7
:10096000FCCF82E68093C60020E030E0E92FF0E083
:1009700000E311E3EF012196CF01821B930B6A0183
:100980007B0104C0F694E794D794C7948A95D2F774
:10099000D701C60181709070892B39F08091C00019
:1009A00085FFFCCF1093C60006C08091C00085FF74
:1009B000FCCF0093C6002F5F3F4F2C173D07E1F699
:1009C000DF91CF911F910F91FF90EF90DF90CF902B
:1009D0000895AC0120E007C08091C00085FFFCCFE6
:1009E000E093C6002F5FFA01E20FF11DE081EE23D4
:1009F00099F7089580E091E00E94E904089583E06A
:100A000091E00E94E9040895BF92CF92DF92EF92A5
:100A1000FF920F931F936B017C0161157105810596
:100A2000910531F41092070181E080930F0123C0FA
:100A3000BB240B2D10E00A5F1E4FC701B6012AE050
:100A400030E040E050E00E940F06F8016183C701EA
:100A5000B6012AE030E040E050E00E940F06C901F4
:100A6000DA016C017D01B394C114D104E104F104F5
:100A700001F7B0920F011F910F91FF90EF90DF905F
:100A8000CF90BF900895E0910F010FC02E2F2150FD
:100A9000E22FF0E0EA5FFE4F91818091C00085FF78
:100AA000FCCF905D9093C600E22FEE2379F7089576
:100AB0009B01AC0197FF0EC08091C00085FFFCCF69
:100AC0008DE28093C60050954095309521953F4F1B
:100AD0004F4F5F4FCA01B9010E9404050E944305B0
:100AE0000895FC01EA5FFE4F83850895209133014C
:100AF00030913401C90108951092060120E030E0E0
:100B000006C0F901EA5FFE4F13862F5F3F4F8091C9
:100B10003101909132012817390798F3109234016E
:100B2000109233010895DF93CF930F92CDB7DEB7C4
:100B300019820E940604898380910601882319F591
:100B4000898180931001E0913301F0913401898112
:100B5000EA5FFE4F838780913301909134010196C3
:100B6000909334018093330120913301309134010B
:100B700080913101909132012817390720F01092AD
:100B80003401109233010F90CF91DF9108951F929D
:100B90000F920FB60F9211242F933F934F935F93B1
:100BA0006F937F938F939F93AF93BF93EF93FF9335
:100BB0000E949305FF91EF91BF91AF919F918F910B
:100BC0007F916F915F914F913F912F910F900FBE49
:100BD0000F901F901895EF92FF920F931F937B0138
:100BE0008C010E94A803C801B7010E94CB03E1EC6D
:100BF000F0E0808188608083A2ECB0E096E09C9376
:100C00008081806180839C938081806880837894D8
:100C10000E947C051F910F91FF90EF900895A1E233
:100C20001A2EAA1BBB1BFD010DC0AA1FBB1FEE1F66
:100C3000FF1FA217B307E407F50720F0A21BB30BB1
:100C4000E40BF50B661F771F881F991F1A9469F72D
:100C500060957095809590959B01AC01BD01CF0189
:060C60000895F894FFCF97
:060C66000D0A0020000051
:00000001FF
