:100000000C9434000C943E000C943E000C943E0082
:100010000C943E000C943E000C943E000C943E0068
:100020000C943E000C943E000C943E000C943E0058
:100030000C943E000C943E000C943E000C943E0048
:100040000C943E000C943E000C943E000C943E0038
:100050000C943E000C943E000C943E000C943E0028
:100060000C943E000C943E0011241FBECFEFD8E04C
:10007000DEBFCDBF0E9440000C94DD000C94000058
:10008000CF93DF930E94D800CCE2D1E08AEA9AE0D5
:100090000E949D008AEA9AE00E949D0088E893E110
:1000A000FE013197F1F70197D9F7F0CF0895882332
:1000B00011F420980895209A0895882311F428981F
:1000C0000895289A089583B181700895882311F4C2
:1000D000209A0895209808952898209820983D9A6D
:1000E00045980895E8E6F0E0808181608083D89AA1
:1000F000EBE6F0E080818160808378940895EBE600
:10010000F0E08081816080830895EBE6F0E08081FB
:100110008E7F80830895459A84E08A95F1F745980B
:10012000089588E28A95F1F7089588E28A95F1F7B3
:10013000089580E58A95F1F70895AC0180916B00F0
:100140008E7F80936B0020E030E060E0E8E270E5B5
:10015000F4E0209A8E2F8A95F1F76B3021F053FD51
:1001600002C0209A01C02098872F8A95F1F7459AFE
:100170008F2F8A95F1F74598220F331F83B190E0B6
:1001800081709070282B392B872F8A95F1F7209852
:100190008E2F8A95F1F76F5F6C3019F0440F551F61
:1001A000D8CF80916B00816080936B00C901089566
:0E01B0000E946C000E9472000895F894FFCF28
:00000001FF
