:100000000C9434000C9451000C9451000C94510049
:100010000C9451000C9415030C9451000C94510055
:100020000C9451000C9451000C9451000C9451000C
:100030000C9451000C9451000C9451000C945100FC
:100040000C9451000C9451000C9489050C945100AF
:100050000C9451000C9451000C9451000C945100DC
:100060000C9451000C94510011241FBECFEFD8E026
:10007000DEBFCDBF11E0A0E0B1E0EAEEFBE002C0E0
:1000800005900D92A630B107D9F711E0A6E0B1E0D6
:1000900001C01D92A93DB107E1F70E9453000C94E5
:1000A000F3050C940000CF93DF930E94520380E18C
:1000B00097E22CE231E0F9013197F1F70197D9F796
:1000C0000E945E03CCE2D1E00E9434018130A9F4A9
:1000D000CE010197F1F780E096E068E670E00E94BB
:1000E0009A0180E091E061E070E00E949A0180E076
:1000F00093E067E070E00E949A0180E197E2FE01E0
:100100003197F1F7019701F3FACF1092360110926F
:100110003501109238011092370110923901109276
:100120003A0110923B0110923D0110923F01109252
:100130003E01109240011092410108951092360143
:100140001092350110923801109237011092390146
:10015000089510923D0110923F0110923E011092BD
:10016000400110924101089580E090E0FC01EB5CB9
:10017000FE4F1586019686399105C1F71092D80178
:100180000895882311F456980895569A089588235F
:1001900011F45E9808955E9A089589B190E026E082
:1001A000969587952A95E1F781700895882311F433
:1001B000569A0895569808955E9856985698549A67
:1001C0005C980895E8E6F0E0808184608083DA9AA4
:1001D000EDE6F0E080818F7B808378940895EDE6F2
:1001E000F0E08081806480830895EDE6F0E0808116
:1001F0008F7B8083089580916D0090E036E0969526
:1002000087953A95E1F78170089589B18295869531
:100210008695837080958170089508955C9A84E036
:100220008A95F1F75C98089580E58A95F1F708952D
:1002300080E58A95F1F7089580EA8A95F1F70895A7
:1002400088E592E00197F1F70895EDE6F0E080810E
:100250008F7B808380E58A95F1F780EA8A95F1F7B4
:10026000808180648083089580916D008F7B80936E
:100270006D0020E040E530EA569A842F8A95F1F728
:100280005698832F8A95F1F789B1932F9A95F1F7B4
:100290005698942F9A95F1F786FF03C02F5F283167
:1002A00059F780916D00806480936D0088E592E03D
:1002B0000197F1F781E00895AC0180916D008F7B8B
:1002C00080936D0020E030E060E0E0E570EA569A4F
:1002D0008E2F8A95F1F76B3021F053FD02C0569AAC
:1002E00001C05698872F8A95F1F7220F331F89B1E5
:1002F00090E0A6E096958795AA95E1F781709070B9
:10030000282B392B872F8A95F1F756988E2F8A95AF
:10031000F1F76F5F6C3019F0440F551FD8CF809103
:100320006D00806480936D0088E592E00197F1F79D
:10033000C9010895682B792B660F771FCB01816067
:100340000E945C010895809139018B30A1F45C9A80
:1003500084E08A95F1F75C9880914001813019F42E
:1003600010924001569A80EA982F9A95F1F78A9553
:10037000F1F75698A6C00E94250180913501909111
:100380003601880F991F90933601809335015C9A4E
:1003900064E0862F8A95F1F75C98209135013091C1
:1003A000360189B190E046E0969587954A95E1F748
:1003B00081709070822B932B90933601809335013E
:1003C000809139018A3009F085C040913501509102
:1003D000360120913501309136018091350190919F
:1003E00036018F5F974031F510923B0181E0809399
:1003F0003A01809340015C9A862F8A95F1F75C98C8
:100400005C9A862F8A95F1F75C985C9A862F8A957C
:10041000F1F75C985C9A862F8A95F1F75C985C9A64
:10042000862F8A95F1F75C985C9A862F8A95F1F76A
:100430005C9850C0CA0180709770307046E0803080
:10044000940779F42836310579F580913A018130A5
:1004500009F040C010923A0180933B018093400123
:10046000CFCF74E08030970749F480913B01813011
:1004700059F520933C0180934001C7CF41E0803083
:10048000940749F480913B018130F1F420933C01C1
:1004900080934001BFCF009739F480913B018130B8
:1004A00099F480934001BBCF8050934069F48091D0
:1004B0003B01813049F410923B0110923A01809344
:1004C00040015C9A84E0B2CF1092400110923B014F
:1004D00010923A01809139018F5F8093390108951C
:1004E000809139018C3010F480E008951092390128
:1004F000109236011092350181E008950E94A30107
:10050000809139018C3018F42FEF3FEF0EC010921C
:100510003901109236011092350120913501309148
:1005200036011092360110923501C90108950E94DA
:100530007E029C018FEF2F3F3807B9F030933801CE
:1005400020933701C9018070977090933F01809389
:100550003E01822F8170809340013695279530703F
:1005600020933D0181E08093410108950E9497020C
:1005700080914101813009F050C080913701909104
:1005800038018E7F9F708E5F9F40E1F4109236019C
:1005900010923501109238011092370110923901F2
:1005A00010923D0110923F0110923E0110924001C5
:1005B000109241015C9A84E0982F9A95F1F75C982B
:1005C0005C9A09C080913E0190913F018050964015
:1005D00041F45C9A84E0982F9A95F1F75C985C9AC4
:1005E00008C080913E0190913F01892B41F45C9AB3
:1005F00084E0982F9A95F1F75C985C9A09C08091F5
:100600003E0190913F018050934029F45C9A84E030
:100610008A95F1F75C981092410108950895089524
:10062000089508950895089508951F920F920FB6A2
:100630000F9211242F933F934F935F936F937F9368
:100640008F939F93AF93BF93EF93FF9380916D0030
:1006500086FF0EC04E990CC00E94A3018091390103
:100660008C3030F010923901109236011092350121
:10067000FF91EF91BF91AF919F918F917F916F917A
:100680005F914F913F912F910F900FBE0F901F9050
:100690001895E5E3F1E0E80FF11D85850895809157
:1006A000D80108950E9485000E94DC000E94E200AB
:1006B000EDE6F0E080818F7B808308950E948500C5
:1006C0000E94DC000E94E200EDE6F0E080818064A0
:1006D0008083089510920601E7E0F1E0119281E035
:1006E000EF30F807D9F71082118280E290E093A3EF
:1006F00082A315A214A220E004C0EA5FFE4F138675
:100700002F5F8091310190913201E22FF0E0E817E4
:10071000F90798F30895089508959B01AC0160E6E8
:1007200073EE86E190E00E94D105215030404040B8
:100730005040E0ECF0E0808182608083BB27A52FF1
:10074000942F832F8093C5002093C4000895E1EC7B
:10075000F0E080818860808386E08093C200089505
:10076000E1ECF0E080818061808386E08093C200CC
:100770000895E1ECF0E080818068808378940895AA
:10078000982F8091C00085FFFCCF9093C6000895FC
:10079000DF93CF930F92CDB7DEB719828091C0005F
:1007A00084FF05C08091C600898381E008C08091E4
:1007B000C00083FF07C08091C600898382E08093D8
:1007C000060105C08091C6008983109206018981C7
:1007D0000F90CF91DF9108958091100108951092AC
:1007E000100108951F93CF93DF93AB01BC014F3FDE
:1007F00051056105710509F028F4E8E0F0E0C2E078
:10080000D0E011C0403080E0580781E0680780E008
:10081000780728F0E0E2F0E0C8E0D0E004C0E0E1D2
:10082000F0E0C4E0D0E08091C00085FFFCCF80E321
:100830008093C6008091C00085FFFCCF88E780933D
:10084000C60010E01FC03497DB01CA010E2E04C0A1
:10085000B695A795979587950A94D2F790E08F70F3
:1008600090708A30910520F09C01295C3F4F03C0B5
:100870009C01205D3F4F8091C00085FFFCCF2093FD
:10088000C6001F5F812F90E08C179D07E0F2DF917B
:10089000CF911F910895CF92DF92EF92FF920F9325
:1008A0001F93CF93DF93AB01BC014F3F510561050F
:1008B000710509F010F497E00BC0403080E0580754
:1008C00081E0680780E0780710F09FE101C09FE0B9
:1008D0008091C00085FFFCCF80E38093C6008091AB
:1008E000C00085FFFCCF82E68093C60020E030E0A8
:1008F000E92FF0E000E311E3EF012196CF01821B25
:10090000930B6A017B0104C0F694E794D794C794D3
:100910008A95D2F7D701C60181709070892B39F082
:100920008091C00085FFFCCF1093C60006C0809167
:10093000C00085FFFCCF0093C6002F5F3F4F2C17F0
:100940003D07E1F6DF91CF911F910F91FF90EF905E
:10095000DF90CF900895AC0120E007C08091C000E7
:1009600085FFFCCFE093C6002F5FFA01E20FF11D77
:10097000E081EE2399F7089580E091E00E94AB04B6
:10098000089583E091E00E94AB040895BF92CF9256
:10099000DF92EF92FF920F931F936B017C01611521
:1009A00071058105910531F41092070181E0809372
:1009B0000F0123C0BB240B2D10E00A5F1E4FC7019F
:1009C000B6012AE030E040E050E00E94D105F80195
:1009D0006183C701B6012AE030E040E050E00E94A8
:1009E000D105C901DA016C017D01B394C114D104B0
:1009F000E104F10401F7B0920F011F910F91FF90F4
:100A0000EF90DF90CF90BF900895E0910F010FC05D
:100A10002E2F2150E22FF0E0EA5FFE4F918180916E
:100A2000C00085FFFCCF905D9093C600E22FEE23BF
:100A300079F708959B01AC0197FF0EC08091C0002B
:100A400085FFFCCF8DE28093C60050954095309590
:100A500021953F4F4F4F5F4FCA01B9010E94C60415
:100A60000E9405050895FC01EA5FFE4F8385089505
:100A70002091330130913401C9010895109206018B
:100A800020E030E006C0F901EA5FFE4F13862F5FD9
:100A90003F4F80913101909132012817390798F327
:100AA00010923401109233010895DF93CF930F9287
:100AB000CDB7DEB719820E94C803898380910601F1
:100AC000882319F5898180931001E0913301F09119
:100AD00034018981EA5FFE4F8387809133019091D1
:100AE00034010196909334018093330120913301B6
:100AF00030913401809131019091320128173907EA
:100B000020F010923401109233010F90CF91DF91B9
:100B100008951F920F920FB60F9211242F933F93B7
:100B20004F935F936F937F938F939F93AF93BF93F5
:100B3000EF93FF930E945505FF91EF91BF91AF9105
:100B40009F918F917F916F915F914F913F912F91E5
:100B50000F900FBE0F901F901895EF92FF920F937A
:100B60001F937B018C010E946A03C801B7010E9498
:100B70008D03E1ECF0E0808188608083A2ECB0E03E
:100B800096E09C938081806180839C9380818068C3
:100B9000808378940E943E051F910F91FF90EF9003
:100BA0000895A1E21A2EAA1BBB1BFD010DC0AA1FAE
:100BB000BB1FEE1FFF1FA217B307E407F50720F0C6
:100BC000A21BB30BE40BF50B661F771F881F991F41
:100BD0001A9469F760957095809590959B01AC018A
:0A0BE000BD01CF010895F894FFCF86
:060BEA000D0A00200000CE
:00000001FF
