:100000000C9434000C9451000C9451000C94510049
:100010000C94E4030C9451000C9451000C94510086
:100020000C9451000C9451000C9451000C9451000C
:100030000C9451000C9451000C9451000C945100FC
:100040000C9451000C9451000C947B060C945100BC
:100050000C9451000C9451000C9451000C945100DC
:100060000C9451000C94510011241FBECFEFD8E026
:10007000DEBFCDBF11E0A0E0B1E0EEECFDE002C0DC
:1000800005900D92A630B107D9F711E0A6E0B1E0D6
:1000900001C01D92A03EB107E1F70E9453000C94ED
:1000A000E5060C9400001F93CF93DF930E94500449
:1000B00060E076E980E090E00E949F06C0EDD7E026
:1000C0000E942B048130B9F410E00DC0812F0E94F2
:1000D0003B0490E0A0E0B0E0BC01CD010E94E4044C
:1000E0000E94B3051F5F0E944104181778F30E9415
:1000F000AE050E94BB00CE010197F1F7E1CF10924F
:100100003601109235011092370110923801109289
:10011000390110923B0110923A0110923D01109268
:100120003C011092460110923F0110923E01109244
:10013000410110924001109243011092420110922D
:100140004501109244011092470181E080934801DB
:1001500008951092360110923501109237010895DA
:1001600010923B0110923A0110923D0110923C0115
:1001700010924601089580E090E0FC01EB5CFE4F98
:10018000148A019686399105C1F71092DF0108950E
:10019000882311F43D9808953D9A0895882311F419
:1001A00045980895459A089586B190E025E0969582
:1001B00087952A95E1F781700895882311F43D9A77
:1001C00008953D98089545983D983D983C9A4498E7
:1001D0000895E8E6F0E0808182608083D99AECE6B9
:1001E000F0E080818F7D808378940895ECE6F0E0E4
:1001F0008081806280830895ECE6F0E080818F7DCD
:100200008083089580916C0090E035E09695879505
:100210003A95E1F78170089586B182958695877049
:10022000809581700895089590E007C0449A000079
:1002300000004498000000009F5F9817B8F30895ED
:1002400085E38A95F1F7089585E38A95F1F7089596
:100250008AE68A95F1F7089580E991E00197F1F730
:100260000895ECE6F0E080818F7D808385E38A95B8
:10027000F1F78AE68A95F1F780818062808308959C
:1002800080916C008F7D80936C0020E045E33AE61E
:100290003D9A842F8A95F1F73D98832F8A95F1F73F
:1002A00086B1932F9A95F1F73D98942F9A95F1F78F
:1002B00085FF03C02F5F283159F780916C00806261
:1002C00080936C0080E991E00197F1F781E0089557
:1002D000AC0180916C008F7D80936C0020E030E059
:1002E00060E0E5E37AE63D9A8E2F8A95F1F76B3070
:1002F00021F053FD02C03D9A01C03D98872F8A9599
:10030000F1F7220F331F86B190E0A5E0969587950F
:10031000AA95E1F781709070282B392B872F8A9549
:10032000F1F73D988E2F8A95F1F76F5F6C3019F0D9
:10033000440F551FD8CF80916C00806280936C0071
:1003400080E991E00197F1F7C9010895682B792BB5
:10035000660F771FCB0181600E946801089510929B
:10036000390181E08093380110923F0110923E01E3
:1003700010924101109240018093460186E00E9454
:10038000140108951092380181E080933901109290
:1003900048018093460185E00E94140108958091F0
:1003A0003C0190913D01909343018093420180E094
:1003B00094E090933F0180933E0181E08093460159
:1003C00084E00E941401089580913C0190913D01C8
:1003D000909343018093420180E091E090933F012C
:1003E00080933E0181E08093460183E00E941401E6
:1003F000089581E08093460180913E0190913F01F4
:1004000080509140A9F4E091DF01F0E080913C013F
:1004100090913D01EB5CFE4F848B8091DF018F5FFB
:100420008093DF018091DF01863910F01092DF01A7
:1004300082E00E941401089510923901109238014F
:1004400081E080934801809346010E941401089541
:1004500080913501909136018F5F974019F40E9489
:10046000AF01089580913A0190913B0180509640F0
:1004700079F480913C0190913D018836910541F4D9
:1004800080913801813009F040C00E94C201089576
:1004900080913A0190913B018050944039F48091D1
:1004A0003901813019F40E94CF01089580913A01F9
:1004B00090913B018050914039F480913901813015
:1004C00019F40E94E401089580913A0190913B0152
:1004D000892B39F480913901813019F40E94F90196
:1004E000089580913A0190913B018050934039F4F6
:1004F00080913901813019F40E941C0208951092F4
:1005000046011092390110923801089580913E0100
:1005100090913F0121E08030920729F490934101AE
:1005200080934001089580913E0190913F0124E025
:100530008030920749F5909341018093400180916A
:100540004701882329F587E00E9414018CE990E097
:10055000909345018093440180914401909145011D
:10056000880F991F90934501809344018091440125
:10057000909145018160986090934501809344017A
:1005800081E080934701089510924101109240014B
:1005900008950E9431018091350190913601880FB4
:1005A000991F909336018093350181E00E941401D8
:1005B000209135013091360186B190E045E0969565
:1005C00087954A95E1F781709070822B932B9093D9
:1005D000360180933501809137018A30A9F48091EA
:1005E0003501909136018070977090933B01809314
:1005F0003A018091350190913601907090933D01C0
:1006000080933C010E942802089581E00E94140119
:1006100080914601813019F4109246013D9A8AE694
:10062000982F9A95F1F78A95F1F73D9881E00E940D
:10063000140108951F9380916C008F7D80936C004E
:10064000809144019091450193FF02C03D9801C003
:100650003D9A8091440190914501880F991F909394
:100660004501809344011AE6812F8A95F1F781E0D4
:100670000E9414011A95F1F73D98809137018B3053
:1006800069F410923F0110923E01109241011092C4
:1006900040011092470182E00E94140180916C0099
:1006A000806280936C001F91089580914001909129
:1006B00041018050914031F0809140019091410181
:1006C000892B71F4809137018B3018F40E94C90294
:1006D00010C0809137018B3061F40E94050309C07E
:1006E00080914001909141018050944011F40E940A
:1006F0001A03809137018F5F809337018091370112
:100700008C3040F010923601109235011092370172
:100710000E9486020895FF920F931F93CF93DF9359
:10072000182F092FF62E80E096E068E670E00E9410
:10073000A60180E091E060E070E00E94A601212F18
:10074000302FC901EC0110E007C0699180E090E012
:1007500070E00E94A6011F5F1F15B8F380E093E0D0
:1007600060E070E00E94A601DF91CF911F910F9190
:10077000FF9008951F93CF93DF93182F80E096E0AA
:1007800068E670E00E94A60180E094E0612F70E0CE
:100790000E94A60180E090E06FEF70E00E94A60149
:1007A000EC0180E093E060E070E00E94A60180FF31
:1007B00003C080E090E004C0CE01969587959070CC
:1007C000DF91CF911F9108951F920F920FB60F9254
:1007D00011242F933F934F935F936F937F938F9346
:1007E0009F93AF93BF93EF93FF9380916C0085FF2E
:1007F00004C0359902C00E945503FF91EF91BF914B
:10080000AF919F918F917F916F915F914F913F91A8
:100810002F910F900FBE0F901F90189590E090931E
:100820004501809344018091440190914501880FD6
:10083000991F9093450180934401809144019091C8
:10084000450181609860909345018093440108952B
:1008500080914801089580914801813011F090E025
:1008600008C08091DF0190E0882309F491E081E0E5
:100870009827892F0895E5E3F1E0E80FF11D8489B9
:1008800008958091DF0108950E947F000E94E30097
:100890000E94E900ECE6F0E080818F7D808308957E
:1008A0000E947F000E94E3000E94E900ECE6F0E075
:1008B000808180628083089510920601E7E0F1E074
:1008C000119281E0EF30F807D9F71082118280E2AF
:1008D00090E093A382A315A214A220E004C0EA5FD3
:1008E000FE4F13862F5F8091310190913201E22FEC
:1008F000F0E0E817F90798F30895089508959B012B
:10090000AC0160E472E48FE090E00E94C3062150E5
:10091000304040405040E0ECF0E0808182608083D5
:10092000BB27A52F942F832F8093C5002093C4004D
:100930000895E1ECF0E080818860808386E0809318
:10094000C2000895E1ECF0E080818061808386E060
:100950008093C2000895E1ECF0E08081806880839C
:1009600078940895982F8091C00085FFFCCF9093D4
:10097000C6000895DF93CF930F92CDB7DEB71982EB
:100980008091C00084FF05C08091C600898381E00A
:1009900008C08091C00083FF07C08091C600898392
:1009A00082E08093060105C08091C6008983109281
:1009B000060189810F90CF91DF91089580911001F8
:1009C00008951092100108951F93CF93DF93AB0108
:1009D000BC014F3F51056105710509F028F4E8E0BD
:1009E000F0E0C2E0D0E011C0403080E0580781E084
:1009F000680780E0780728F0E0E2F0E0C8E0D0E0A7
:100A000004C0E0E1F0E0C4E0D0E08091C00085FFE8
:100A1000FCCF80E38093C6008091C00085FFFCCFAF
:100A200088E78093C60010E01FC03497DB01CA013D
:100A30000E2E04C0B695A795979587950A94D2F780
:100A400090E08F7090708A30910520F09C01295CB5
:100A50003F4F03C09C01205D3F4F8091C00085FF48
:100A6000FCCF2093C6001F5F812F90E08C179D075D
:100A7000E0F2DF91CF911F910895CF92DF92EF9234
:100A8000FF920F931F93CF93DF93AB01BC014F3FB6
:100A900051056105710509F010F497E00BC0403075
:100AA00080E0580781E0680780E0780710F09FE158
:100AB00001C09FE08091C00085FFFCCF80E3809360
:100AC000C6008091C00085FFFCCF82E68093C600FF
:100AD00020E030E0E92FF0E000E311E3EF012196A0
:100AE000CF01821B930B6A017B0104C0F694E7944B
:100AF000D794C7948A95D2F7D701C60181709070B8
:100B0000892B39F08091C00085FFFCCF1093C6007F
:100B100006C08091C00085FFFCCF0093C6002F5F08
:100B20003F4F2C173D07E1F6DF91CF911F910F91B9
:100B3000FF90EF90DF90CF900895AC0120E007C0C8
:100B40008091C00085FFFCCFE093C6002F5FFA01C3
:100B5000E20FF11DE081EE2399F7089580E091E026
:100B60000E949D05089583E091E00E949D050895EF
:100B7000BF92CF92DF92EF92FF920F931F936B0180
:100B80007C01611571058105910531F41092070111
:100B900081E080930F0123C0BB240B2D10E00A5F7E
:100BA0001E4FC701B6012AE030E040E050E00E944D
:100BB000C306F8016183C701B6012AE030E040E0D6
:100BC00050E00E94C306C901DA016C017D01B394B3
:100BD000C114D104E104F10401F7B0920F011F9197
:100BE0000F91FF90EF90DF90CF90BF900895E0912C
:100BF0000F010FC02E2F2150E22FF0E0EA5FFE4FD1
:100C000091818091C00085FFFCCF905D9093C600DC
:100C1000E22FEE2379F708959B01AC0197FF0EC0F8
:100C20008091C00085FFFCCF8DE28093C600509577
:100C30004095309521953F4F4F4F5F4FCA01B90105
:100C40000E94B8050E94F7050895FC01EA5FFE4F77
:100C5000838508952091330130913401C9010895AD
:100C60001092060120E030E006C0F901EA5FFE4F75
:100C700013862F5F3F4F80913101909132012817E9
:100C8000390798F310923401109233010895DF93DD
:100C9000CF930F92CDB7DEB719820E94BA04898331
:100CA00080910601882319F5898180931001E091D4
:100CB0003301F09134018981EA5FFE4F838780918F
:100CC0003301909134010196909334018093330164
:100CD00020913301309134018091310190913201A2
:100CE0002817390720F010923401109233010F9029
:100CF000CF91DF9108951F920F920FB60F9211249A
:100D00002F933F934F935F936F937F938F939F9313
:100D1000AF93BF93EF93FF930E944706FF91EF912C
:100D2000BF91AF919F918F917F916F915F914F9103
:100D30003F912F910F900FBE0F901F901895EF923B
:100D4000FF920F931F937B018C010E945C04C801EA
:100D5000B7010E947F04E1ECF0E08081886080832D
:100D6000A2ECB0E096E09C938081806180839C93AC
:100D700080818068808378940E9430061F910F9153
:100D8000FF90EF900895A1E21A2EAA1BBB1BFD0154
:100D90000DC0AA1FBB1FEE1FFF1FA217B307E4075A
:100DA000F50720F0A21BB30BE40BF50B661F771FB2
:100DB000881F991F1A9469F7609570958095909592
:0E0DC0009B01AC01BD01CF010895F894FFCF57
:060DCE000D0A00200000E8
:00000001FF
