:100000000C9434000C9446000C9446000C9446006A
:100010000C9433020C9446000C9446000C94460059
:100020000C9446000C9446000C9446000C94460038
:100030000C9446000C9446000C9446000C94460028
:100040000C9446000C9446000C9446000C94460018
:100050000C9446000C9446000C9446000C94460008
:100060000C9446000C94460011241FBECFEFD8E03C
:10007000DEBFCDBF11E0A0E0B1E001C01D92AF3FF7
:10008000B107E1F70E9448000C94CD020C940000E7
:100090000E94C102FFCF1092000110920201109243
:1000A0000101109204011092030180E090E0FC0134
:1000B000EE0FFF1FE050FF4F168215820196883722
:1000C0009105A9F71092F5011092F6011092F8012E
:1000D0001092F7011092FA011092F9011092FC01AE
:1000E0001092FB011092FD011092FE0108951092F2
:1000F00000011092020110920101089580E090E049
:10010000FC01EE0FFF1FE050FF4F16821582019693
:1001100088379105A9F71092F5010895882311F405
:100120003D9808953D9A0895882311F445980895BF
:10013000459A089586B190E045E0969587954A9551
:10014000E1F781700895882311F43D9A08953D9850
:10015000089545983D983D983C9A44980895E8E65E
:10016000F0E0808182608083D99AECE6F0E08081C3
:100170008F7D808378940895ECE6F0E08081806242
:1001800080830895ECE6F0E080818F7D8083089580
:1001900080916C0090E055E0969587955A95E1F72F
:1001A0008170089586B1829586958770809581705B
:1001B00008950895449A82E08A95F1F74498089545
:1001C00085E38A95F1F7089585E38A95F1F7089517
:1001D0008AE68A95F1F7089588EC90E00197F1F7A7
:1001E0000895ECE6F0E080818F7D808385E38A9539
:1001F000F1F78AE68A95F1F780818062808308951D
:10020000AC0120E030E060E0E5E37AE63D9A8E2F35
:100210008A95F1F76B3021F053FD02C03D9A01C081
:100220003D98872F8A95F1F7220F331F86B190E012
:10023000A5E096958795AA95E1F781709070282B97
:10024000392B872F8A95F1F73D988E2F8A95F1F7F4
:100250006F5F6C3019F0440F551FD8CF88EC90E0D9
:100260000197F1F7C9010895809101019091020170
:10027000880F991F9093020180930101449A82E0B4
:100280008A95F1F74498209101013091020186B1DD
:1002900090E045E0969587954A95E1F781709070DA
:1002A000822B932B9093020180930101E1E0F1E016
:1002B00082918F5F80830895809100018C3010F4CB
:1002C00080E008951092000181E00895E091F50129
:1002D000F0E08091010190910201EE0FFF1FE050CC
:1002E000FF4F968385831092020110920101809145
:1002F000F5018F5F8093F50108958091F5018837AE
:1003000068F01092F501809103019091040101962B
:10031000909304018093030181E00895809103018B
:10032000909104010196909304018093030180E071
:100330000895E091F501F0E08091010190910201B2
:10034000EE0FFF1FE050FF4F96838583109202014E
:10035000109201018091F5018F5F8093F5010E9459
:100360007D018091F5018823A1F1E091F501F0E094
:10037000EE0FFF1FE250FF4F8581968193FF29C04A
:1003800081E08093F601E091F501F0E0EE0FFF1FB0
:10039000E250FF4F85819681807092709093F801B2
:1003A0008093F701E091F501F0E0EE0FFF1FE250BE
:1003B000FF4F858196818E7F91709695879590935A
:1003C000FA018093F901449A82E08A95F1F7449802
:1003D0000895E091F501F0E0EE0FFF1FE250FF4FAE
:1003E0008581968192FF19C01092F6011092F50155
:1003F00010920601109205011092F8011092F70177
:100400001092FA011092F9011092FD011092FE0172
:10041000449A82E08A95F1F74498089580916C009F
:100420008F7D80936C008091FB019091FC0193FF84
:1004300002C03D9801C03D9A8091FB019091FC0162
:10044000880F991F9093FC018093FB018AE6982FF7
:100450009A95F1F78A95F1F73D9880916C0080624A
:1004600080936C0008951F920F920FB60F92112483
:100470002F933F934F935F936F937F938F939F93AC
:10048000AF93BF93EF93FF9380916C0085FF5CC0A7
:1004900035995AC08091F601813039F48091F70185
:1004A0009091F801892B09F443C02091F601213085
:1004B00009F03EC08091F7019091F8018050924080
:1004C000B9F58091FD01882371F48091F901909133
:1004D000FA01880F991F816094609093FC018093CA
:1004E000FB012093FD010E940E028091FE018F5FAF
:1004F0008093FE018091FE018C3030F11092F60164
:100500001092F50110920601109205011092F80167
:100510001092F7011092FA011092F9011092FD0168
:100520001092FE01449A82E08A95F1F744980CC03B
:100530000E94F1000E943401809100018C3020F073
:10054000109200010E949901FF91EF91BF91AF912C
:100550009F918F917F916F915F914F913F912F91DB
:100560000F900FBE0F901F9018950E944B000E9495
:10057000A9000E94AF00ECE6F0E080818F7D8083CF
:1005800008950E944B000E94A9000E94AF00ECE673
:0E059000F0E08081806280830895F894FFCFB0
:00000001FF
