:100000000C9434000C9446000C9446000C94690146
:100010000C9446000C9446000C9446000C94460048
:100020000C9446000C9446000C9446000C94460038
:100030000C9446000C9446000C9446000C94460028
:100040000C9446000C9446000C9446000C94460018
:100050000C9446000C9446000C9446000C94460008
:100060000C9446000C94460011241FBECFEFD8E03C
:10007000DEBFCDBF11E0A0E0B1E001C01D92AA300B
:10008000B107E1F70E9448000C94CD010C940000E8
:10009000CF93DF930E94B501CCE2D1E08FE79AE0E5
:1000A0000E94EE0083E092E00E94EE008FEF93E06A
:1000B0000E94EE0088E893E1FE013197F1F7019785
:1000C000D9F7ECCF109200011092020110920101B9
:1000D0001092040110920301109206011092050182
:1000E00010920801109207011092090108951092D0
:1000F0000001109202011092010108951092040172
:10010000109203011092060110920501109208014D
:1001100010920701109209010895882311F4209884
:100120000895209A0895882311F428980895289A0C
:10013000089583B181700895882311F4209A089559
:10014000209808952898209820983D9A4598579A85
:100150005F980895E8E6F0E0808181608083D89A16
:10016000EBE6F0E080818E7F808378940895EBE663
:10017000F0E08081816080830895EBE6F0E080818B
:100180008E7F8083089580916B008170089583B184
:10019000809581700895459A84E08A95F1F7459895
:1001A00008955F9A84E08A95F1F75F98089588E250
:1001B0008A95F1F7089588E28A95F1F7089580E528
:1001C0008A95F1F7089588EC8A95F1F7089588E209
:1001D0008A95F1F780E58A95F1F70895AC0120E062
:1001E00030E060E0E8E270E5F4E0209A8E2F8A9536
:1001F000F1F76B3021F053FD02C0209A01C0209826
:10020000872F8A95F1F7459A8F2F8A95F1F74598B0
:10021000220F331F83B190E081709070282B392B0F
:10022000872F8A95F1F720988E2F8A95F1F76F5FC7
:100230006C3019F0440F551FD8CF88EC8A95F1F730
:10024000C90108958091010190910201880F991FC1
:1002500090930201809301015F9A84E08A95F1F7FF
:100260005F98209101013091020183B190E081708B
:100270009070822B932B9093020180930101E1E017
:10028000F1E082918F5F80830895809100018C302E
:1002900010F480E008951092000181E00895E9E0F3
:1002A000F1E08091090190E0DF0118972D913C91D8
:1002B00011973997880F991FE80FF91F348323830B
:1002C000809109018F5F8093090111961C921E9203
:1002D00008951F920F920FB60F9211242F933F9300
:1002E0004F935F936F937F938F939F93AF93BF933E
:1002F000EF93FF9380916B0080FF26C0189924C074
:1003000088E28A95F1F780E58A95F1F70E9422014B
:10031000809100018C30C0F010920001E091090141
:10032000F0E08091010190910201EE0FFF1FE0507B
:10033000FF4F94838383809109018F5F809309012C
:100340001092020110920101FF91EF91BF91AF91C4
:100350009F918F917F916F915F914F913F912F91DD
:100360000F900FBE0F901F9018950E9462000E9480
:10037000A2000E94AA00EBE6F0E080818E7F8083DD
:1003800008950E9462000E94A2000E94AA00EBE66B
:0E039000F0E08081816080830895F894FFCFB3
:00000001FF
