:100000000C9434000C9451000C9451000C942C036B
:100010000C9451000C9451000C9451000C9451001C
:100020000C9451000C9451000C9451000C9451000C
:100030000C9451000C9451000C9451000C945100FC
:100040000C9451000C9451000C94EF050C94510049
:100050000C9451000C9451000C9451000C945100DC
:100060000C9451000C94510011241FBECFEFD8E026
:10007000DEBFCDBF11E0A0E0B1E0E6EBFCE002C0E6
:1000800005900D92A832B107D9F712E0A8E2B1E0CD
:1000900001C01D92A136B107E1F70E9453000C94F4
:1000A00059060C940000AF92BF92CF92DF92EF926C
:1000B000FF921F93DF93CF93CDB7DEB72E970FB686
:1000C000F894DEBF0FBECDBF60E07BE480E090E03F
:1000D0000E94130680E091E00E9411050E94B8037F
:1000E00080E197E22CE231E0F9013197F1F70197D5
:1000F000D9F720E098EBA92E9BE0B92E7E01089459
:10010000E11CF11C8CE2C82E81E0D82E222371F470
:10011000D701E4E1F1E08EE001900D928150E1F72A
:10012000C7016EE00E94DC0221E01AC08AE091E083
:100130000E94110510E0812F0E941A0390E0A0E0B8
:10014000B0E0BC01CD010E9480050E942705C501D9
:100150000197F1F71F5F163071F70E94220520E02A
:1001600088EE93E0F6013197F1F70197D9F7CECFFA
:1001700010925701109259011092580110925B0190
:1001800010925A0180E090E0FC01EE0FFF1FE95A47
:10019000FE4F16821582019682339105A9F71092BF
:1001A000C0011092C1011092C3011092C2011092BD
:1001B000C5011092C4011092C7011092C60110929D
:1001C000C8011092C90180E090E0FC01E653FE4FA7
:1001D0001082019686399105C1F710926002089548
:1001E000109257011092590110925801089580E021
:1001F00090E0FC01EE0FFF1FE95AFE4F16821582B8
:10020000019682339105A9F71092C001089580E00C
:1002100090E0FC01E653FE4F10820196863991056D
:10022000C1F7109260020895882311F42098089570
:10023000209A0895882311F428980895289A0895FB
:1002400083B181700895882311F4209A089520982D
:1002500008952898209820980895E8E6F0E0808195
:1002600081608083D89AEBE6F0E080818E7F808386
:1002700078940895EBE6F0E08081816080830895B2
:10028000EBE6F0E080818E7F8083089580916B00A3
:100290008170089583B180958170089508950895BF
:1002A00080E58A95F1F7089580E58A95F1F708953C
:1002B00080EA8A95F1F708958CE291E00197F1F7D1
:1002C0000895EBE6F0E080818E7F808380E58A955B
:1002D000F1F780EA8A95F1F7808181608083089543
:1002E000AC0120E030E060E0E0E570EA209A8E2F7B
:1002F0008A95F1F76B3021F053FD02C0209A01C0BE
:100300002098872F8A95F1F7220F331F83B190E051
:1003100081709070282B392B872F8A95F1F72098C0
:100320008E2F8A95F1F76F5F6C3019F0440F551FCF
:10033000DDCF8CE291E00197F1F7C901089580913A
:10034000580190915901880F991F909359018093FA
:100350005801209158013091590183B190E081708A
:100360009070822B932B9093590180935801E8E56C
:10037000F1E082918F5F80830895809157018C30E6
:1003800010F480E008951092570181E00895E09103
:10039000C001F0E08091580190915901EE0FFF1FCC
:1003A000E95AFE4F968385831092590110925801A5
:1003B0008091C0018F5F8093C00108958091C0013A
:1003C000823368F01092C00180915A0190915B01D4
:1003D000019690935B0180935A0181E0089580918A
:1003E0005A0190915B01019690935B0180935A01B1
:1003F00080E00895E091C001F0E080915801909173
:100400005901EE0FFF1FE95AFE4F96838583109224
:100410005901109258018091C0018F5F8093C001F3
:100420000E94DE018091C0018823E9F1E091C001C2
:10043000F0E0EE0FFF1FEB5AFE4F8581968193FF90
:1004400032C081E08093C101E091C001F0E0EE0F85
:10045000FF1FEB5AFE4F85819681807092709093BA
:10046000C3018093C201E091C001F0E0EE0FFF1FD5
:10047000EB5AFE4F858196818E7F91709695879578
:100480009093C5018093C40180E090E0FC01EE0FE1
:10049000FF1FE95AFE4F168215820196823391059D
:1004A000A9F71092C0010895E091C001F0E0809199
:1004B000580190915901EE0FFF1FE95AFE4F9683A4
:1004C000858310925901109258018091C0018F5F6D
:1004D0008093C0010E94DE01E091C001F0E0EE0FC8
:1004E000FF1FEB5AFE4F8581968192FF3FC020E0AF
:1004F0001CC0A0916002B0E0E22FF0E0EE0FFF1F01
:10050000E95AFE4F8581968196958795A653BE4FF1
:100510008C93809160028F5F809360028091600273
:10052000863910F0109260022F5F8091C001281769
:1005300000F31092C10180E090E0FC01EE0FFF1F7C
:10054000E95AFE4F16821582019682339105A9F76A
:100550001092C0011092C3011092C2011092C50105
:100560001092C4011092C8011092C901089580919F
:100570006B008E7F80936B008091C6019091C701C4
:1005800093FF02C0209801C0209A8091C6019091EB
:10059000C701880F991F9093C7018093C60180EA15
:1005A000982F9A95F1F78A95F1F7209880916B0032
:1005B000816080936B000895EF92FF920F931F93D9
:1005C000CF93DF93182F092FE62E81E098E00E9449
:1005D00070018CE291E00197F1F7212F302FC901D2
:1005E000EC01FF240E2D10E00150104016C08F2D9D
:1005F00090E028818017910739F4822F90E0880FCE
:10060000991F8160946005C0822F90E0880F991F28
:1006100081600E947001F3942196FE1440F388E5F6
:1006200092E00197F1F7DF91CF911F910F91FF9029
:10063000EF90089590E0880F991F81609A600E9462
:10064000700188EB9BE00197F1F78FEF97E00E9434
:1006500070019695879508951F920F920FB60F928D
:1006600011242F933F934F935F936F937F938F93B7
:100670009F93AF93BF93EF93FF9380916B0080FFA5
:100680005DC018995BC08091C1018130A1F4809157
:10069000C2019091C301892B71F40E9461010E94F3
:1006A0009F01809157018C3008F448C01092570187
:1006B0000E94540243C02091C101213099F58091DC
:1006C000C2019091C3018050924061F58091C801B0
:1006D000882341F48BEA96E09093C7018093C6018A
:1006E0002093C8010E94B7028091C9018F5F809357
:1006F000C9018091C9018C3008F11092C10110929A
:10070000C00110925D0110925C011092C301109221
:10071000C2011092C5011092C4011092C80110923A
:10072000C9010CC00E9461010E949F018091570184
:100730008C3020F0109257010E94FA01FF91EF9146
:10074000BF91AF919F918F917F916F915F914F91E9
:100750003F912F910F900FBE0F901F901895E82F8B
:10076000F0E0E653FE4F8081089580916002089585
:100770000E94B8000E9429010E942D01EBE6F0E0E2
:1007800080818E7F808308950E94B8000E94290195
:100790000E942D01EBE6F0E0808181608083089566
:1007A00010922801E9E2F1E0119281E0E133F807CB
:1007B000D9F71082118280E290E093A382A315A260
:1007C00014A220E004C0E85DFE4F13862F5F8091E5
:1007D000530190915401E22FF0E0E817F90798F3E4
:1007E0000895089508959B01AC0160E673EE86E1DB
:1007F00090E00E9437062150304040405040E0ECED
:10080000F0E0808182608083BB27A52F942F832F07
:100810008093C5002093C4000895E1ECF0E080814E
:100820008860808386E08093C2000895E1ECF0E068
:1008300080818061808386E08093C2000895E1EC2E
:10084000F0E080818068808378940895982F80916B
:10085000C00085FFFCCF9093C6000895DF93CF932F
:100860000F92CDB7DEB719828091C00084FF05C01A
:100870008091C600898381E008C08091C00083FF19
:1008800007C08091C600898382E08093280105C05B
:100890008091C60089831092280189810F90CF91A1
:1008A000DF910895809132010895109232010895E8
:1008B0001F93CF93DF93AB01BC014F3F51056105FF
:1008C000710509F028F4E8E0F0E0C2E0D0E011C0E2
:1008D000403080E0580781E0680780E0780728F022
:1008E000E0E2F0E0C8E0D0E004C0E0E1F0E0C4E025
:1008F000D0E08091C00085FFFCCF80E38093C600EC
:100900008091C00085FFFCCF88E78093C60010E08F
:100910001FC03497DB01CA010E2E04C0B695A795FF
:10092000979587950A94D2F790E08F7090708A30EF
:10093000910520F09C01295C3F4F03C09C01205D84
:100940003F4F8091C00085FFFCCF2093C6001F5F02
:10095000812F90E08C179D07E0F2DF91CF911F91DE
:100960000895CF92DF92EF92FF920F931F93CF9350
:10097000DF93AB01BC014F3F51056105710509F0E3
:1009800010F497E00BC0403080E0580781E0680722
:1009900080E0780710F09FE101C09FE08091C000E7
:1009A00085FFFCCF80E38093C6008091C00085FF67
:1009B000FCCF82E68093C60020E030E0E92FF0E033
:1009C00000E311E3EF012196CF01821B930B6A0133
:1009D0007B0104C0F694E794D794C7948A95D2F724
:1009E000D701C60181709070892B39F08091C000C9
:1009F00085FFFCCF1093C60006C08091C00085FF24
:100A0000FCCF0093C6002F5F3F4F2C173D07E1F648
:100A1000DF91CF911F910F91FF90EF90DF90CF90DA
:100A20000895AC0120E007C08091C00085FFFCCF95
:100A3000E093C6002F5FFA01E20FF11DE081EE2383
:100A400099F7089582E291E00E941105089585E2E8
:100A500091E00E9411050895BF92CF92DF92EF922C
:100A6000FF920F931F936B017C0161157105810546
:100A7000910531F41092290181E08093310123C066
:100A8000BB240B2D10E0085D1E4FC701B6012AE004
:100A900030E040E050E00E943706F8016183C70172
:100AA000B6012AE030E040E050E00E943706C9017C
:100AB000DA016C017D01B394C114D104E104F104A5
:100AC00001F7B09231011F910F91FF90EF90DF90ED
:100AD000CF90BF900895E09131010FC02E2F21508B
:100AE000E22FF0E0E85DFE4F91818091C00085FF2C
:100AF000FCCF905D9093C600E22FEE2379F7089526
:100B00009B01AC0197FF0EC08091C00085FFFCCF18
:100B10008DE28093C60050954095309521953F4FCA
:100B20004F4F5F4FCA01B9010E942C050E946B050F
:100B30000895FC01E85DFE4F8385089520915501DD
:100B400030915601C90108951092280120E030E04B
:100B500006C0F901E85DFE4F13862F5F3F4F80917D
:100B60005301909154012817390798F310925601B8
:100B7000109255010895DF93CF930F92CDB7DEB752
:100B800019820E942E04898380912801882319F5F7
:100B9000898180933201E0915501F091560189815C
:100BA000E85DFE4F83878091550190915601019633
:100BB0009093560180935501209155013091560133
:100BC00080915301909154012817390720F0109219
:100BD0005601109255010F90CF91DF9108951F9209
:100BE0000F920FB60F9211242F933F934F935F9361
:100BF0006F937F938F939F93AF93BF93EF93FF93E5
:100C00000E94BB05FF91EF91BF91AF919F918F9192
:100C10007F916F915F914F913F912F910F900FBEF8
:100C20000F901F901895EF92FF920F931F937B01E7
:100C30008C010E94D003C801B7010E94F303E1ECCC
:100C4000F0E0808188608083A2ECB0E096E09C9325
:100C50008081806180839C93808180688083789488
:100C60000E94A4051F910F91FF90EF900895A1E2BB
:100C70001A2EAA1BBB1BFD010DC0AA1FBB1FEE1F16
:100C8000FF1FA217B307E407F50720F0A21BB30B61
:100C9000E40BF50B661F771F881F991F1A9469F7DD
:100CA00060957095809590959B01AC01BD01CF0139
:060CB0000895F894FFCF47
:100CB6005458204D6F64650D0A00547820646174A1
:100CC60061203A00000102030405060708090A0B21
:080CD6000C0D0D0A00200000C6
:00000001FF
