:100000000C9434000C9451000C9451000C94510049
:100010000C9451000C9461030C9451000C94510009
:100020000C9451000C9451000C9451000C9451000C
:100030000C9451000C9451000C9451000C945100FC
:100040000C9451000C9451000C94D5050C94510063
:100050000C9451000C9451000C9451000C945100DC
:100060000C9451000C94510011241FBECFEFD8E026
:10007000DEBFCDBF11E0A0E0B1E0E2E8FCE002C0ED
:1000800005900D92A630B107D9F711E0A6E0B1E0D6
:1000900001C01D92A83DB107E1F70E9453000C94E6
:1000A0003F060C940000EF92FF920F931F93CF93A3
:1000B000DF930E949E0380E197E22CE231E0F90198
:1000C0003197F1F70197D9F788EBE82E8BE0F82EFE
:1000D000CCE2D1E008E512E00E947B01813009F01A
:1000E00054C0C7010197F1F781ED90E00E94A30190
:1000F000CE010197F1F783E090E00E94A301CE01C9
:100100000197F1F785E090E00E94A301CE010197ED
:10011000F1F787E090E00E94A301CE010197F1F78B
:1001200089E090E00E94A301CE010197F1F78BE0F6
:1001300090E00E94A301C8010197F1F783ED90E0E0
:100140000E94A301CE010197F1F783E090E00E94A5
:10015000A301CE010197F1F785E090E00E94A30191
:10016000CE010197F1F787E090E00E94A301CE0154
:100170000197F1F789E090E00E94A301CE01019779
:10018000F1F78BE090E00E94A30180E197E2FE018D
:100190003197F1F7019709F49FCFF9CF109236010B
:1001A00010923501109238011092370110923901E6
:1001B00010923A0110923C0110923E0110923D01C2
:1001C00010923F0110924001089510923601109252
:1001D00035011092380110923701109239010895BB
:1001E00010923C0110923E0110923D0110923F018D
:1001F00010924001089580E090E0FC01EB5CFE4F1E
:100200001486019686399105C1F71092D701089599
:10021000882311F456980895569A0895882311F466
:100220005E9808955E9A089589B190E026E09695CB
:1002300087952A95E1F781700895882311F4569ADD
:100240000895569808955E9856985698549A5C98D2
:100250000895E8E6F0E0808184608083DA9AEDE634
:10026000F0E080818F7B808378940895EDE6F0E064
:100270008081806480830895EDE6F0E080818F7B4B
:100280008083089580916D0090E036E09695879583
:100290003A95E1F78170089589B1829586958695A2
:1002A000837080958170089508955C9A84E08A95A2
:1002B000F1F75C98089580E58A95F1F7089580E557
:1002C0008A95F1F7089580EA8A95F1F708958CE20E
:1002D00091E00197F1F70895EDE6F0E080818F7BE2
:1002E000808380E58A95F1F780EA8A95F1F780812D
:1002F00080648083089580916D008F7B80936D0072
:1003000020E040E530EA569A842F8A95F1F7569816
:10031000832F8A95F1F789B1932F9A95F1F7569823
:10032000942F9A95F1F786FF03C02F5F283159F774
:1003300080916D00806480936D008CE291E0019764
:10034000F1F781E00895AC0180916D008F7B80937F
:100350006D0020E030E060E0E0E570EA569A8E2F14
:100360008A95F1F76B3021F053FD02C0569A01C017
:100370005698872F8A95F1F7220F331F89B190E0A5
:10038000A6E096958795AA95E1F781709070282B45
:10039000392B872F8A95F1F756988E2F8A95F1F78A
:1003A0006F5F6C3019F0440F551FD8CF80916D00EE
:1003B000806480936D008CE291E00197F1F7C901B0
:1003C0000895809139018B3089F55C9A84E08A9593
:1003D000F1F75C9880913F01813019F410923F0150
:1003E000569A40EA842F8A95F1F7809135019091D1
:1003F0003601880F991F9093360180933501209123
:1004000035013091360189B190E066E09695879587
:100410006A95E1F781709070822B932B909336014F
:10042000809335014A95F1F75698A3C00E946C015C
:100430008091350190913601880F991F9093360174
:10044000809335015C9A64E0862F8A95F1F75C9879
:10045000209135013091360189B190E046E09695C2
:1004600087954A95E1F781709070822B932B90933A
:10047000360180933501809139018A3009F07EC0C0
:10048000209135013091360140913501509136016E
:1004900080913501909136018F5F974059F5109208
:1004A0003A0181E080933F011092360110923501AC
:1004B0008FEF809339015C9A862F8A95F1F75C98CB
:1004C0005C9A862F8A95F1F75C985C9A862F8A95BC
:1004D000F1F75C985C9A862F8A95F1F75C985C9AA4
:1004E000862F8A95F1F75C985C9A862F8A95F1F7AA
:1004F0005C9844C03070CA018070977046E08030CC
:10050000940749F42836310549F581E080933A0192
:1005100080933F01D5CF74E08030970749F48091F4
:100520003A01813049F520933B0180933F01CDCFC3
:1005300041E08030940749F480913A018130E1F440
:1005400020933B0180933F01C5CF009739F4809100
:100550003A01813089F480933F01C1CF80509340AC
:1005600059F480913A01813039F410923A01809324
:100570003F015C9A84E0BACF10923F01809139012B
:100580008F5F809339010895809139018C3010F488
:1005900080E008951092390181E008950E94E10100
:1005A000809139018C3018F42FEF3FEF0AC0109280
:1005B00039012091350130913601109236011092A7
:1005C0003501C90108950E94CE029C018FEF2F3F93
:1005D0003807B9F03093380120933701C901807092
:1005E000977090933E0180933D01822F817080939C
:1005F0003F0136952795307020933C0181E0809330
:10060000400108950E94E30280914001813009F089
:1006100050C080913701909138018E7F9F708E5F1E
:100620009F40E1F41092360110923501109238018A
:10063000109237011092390110923C0110923E0144
:1006400010923D0110923F01109240015C9A84E0AB
:10065000982F9A95F1F75C985C9A09C080913D01BA
:1006600090913E018050964041F45C9A84E0982F2E
:100670009A95F1F75C985C9A08C080913D01909141
:100680003E01892B41F45C9A84E0982F9A95F1F70A
:100690005C985C9A09C080913D0190913E01805028
:1006A000934029F45C9A84E08A95F1F75C98109263
:1006B00040010895089508950895089508950895AE
:1006C00008951F920F920FB60F9211242F933F930C
:1006D0004F935F936F937F938F939F93AF93BF934A
:1006E000EF93FF9380916D0086FF0EC04E990CC072
:1006F0000E94E101809139018C3010F01092390193
:100700001092360110923501FF91EF91BF91AF9198
:100710009F918F917F916F915F914F913F912F9119
:100720000F900FBE0F901F901895E5E3F1E0E80FD2
:10073000F11D848508958091D70108950E94CE000F
:100740000E9423010E942901EDE6F0E080818F7B69
:10075000808308950E94CE000E9423010E942901F7
:10076000EDE6F0E0808180648083089510920601B8
:10077000E7E0F1E0119281E0EF30F807D9F710825D
:10078000118280E290E093A382A315A214A220E03C
:1007900004C0EA5FFE4F13862F5F80913101909174
:1007A0003201E22FF0E0E817F90798F30895089571
:1007B00008959B01AC0160E673EE86E190E00E9433
:1007C0001D062150304040405040E0ECF0E0808178
:1007D00082608083BB27A52F942F832F8093C50031
:1007E0002093C4000895E1ECF0E08081886080836C
:1007F00086E08093C2000895E1ECF0E080818061A2
:10080000808386E08093C2000895E1ECF0E080816F
:100810008068808378940895982F8091C00085FF28
:10082000FCCF9093C6000895DF93CF930F92CDB77E
:10083000DEB719828091C00084FF05C08091C60098
:10084000898381E008C08091C00083FF07C0809148
:10085000C600898382E08093060105C08091C600AE
:1008600089831092060189810F90CF91DF910895BD
:100870008091100108951092100108951F93CF9355
:10088000DF93AB01BC014F3F51056105710509F0D4
:1008900028F4E8E0F0E0C2E0D0E011C0403080E0B1
:1008A000580781E0680780E0780728F0E0E2F0E090
:1008B000C8E0D0E004C0E0E1F0E0C4E0D0E0809126
:1008C000C00085FFFCCF80E38093C6008091C0000C
:1008D00085FFFCCF88E78093C60010E01FC03497E7
:1008E000DB01CA010E2E04C0B695A7959795879592
:1008F0000A94D2F790E08F7090708A30910520F0C2
:100900009C01295C3F4F03C09C01205D3F4F8091BB
:10091000C00085FFFCCF2093C6001F5F812F90E0B1
:100920008C179D07E0F2DF91CF911F910895CF9230
:10093000DF92EF92FF920F931F93CF93DF93AB0160
:10094000BC014F3F51056105710509F010F497E0B6
:100950000BC0403080E0580781E0680780E07807EE
:1009600010F09FE101C09FE08091C00085FFFCCFA7
:1009700080E38093C6008091C00085FFFCCF82E6B3
:100980008093C60020E030E0E92FF0E000E311E3BF
:10099000EF012196CF01821B930B6A017B0104C0FA
:1009A000F694E794D794C7948A95D2F7D701C601F5
:1009B00081709070892B39F08091C00085FFFCCF49
:1009C0001093C60006C08091C00085FFFCCF009345
:1009D000C6002F5F3F4F2C173D07E1F6DF91CF9107
:1009E0001F910F91FF90EF90DF90CF900895AC0191
:1009F00020E007C08091C00085FFFCCFE093C600D7
:100A00002F5FFA01E20FF11DE081EE2399F70895BF
:100A100080E091E00E94F704089583E091E00E9455
:100A2000F7040895BF92CF92DF92EF92FF920F9357
:100A30001F936B017C01611571058105910531F4EE
:100A40001092070181E080930F0123C0BB240B2D7E
:100A500010E00A5F1E4FC701B6012AE030E040E017
:100A600050E00E941D06F8016183C701B6012AE02B
:100A700030E040E050E00E941D06C901DA016C013F
:100A80007D01B394C114D104E104F10401F7B092E3
:100A90000F011F910F91FF90EF90DF90CF90BF90CB
:100AA0000895E0910F010FC02E2F2150E22FF0E0AA
:100AB000EA5FFE4F91818091C00085FFFCCF905D81
:100AC0009093C600E22FEE2379F708959B01AC01C5
:100AD00097FF0EC08091C00085FFFCCF8DE2809310
:100AE000C60050954095309521953F4F4F4F5F4F31
:100AF000CA01B9010E9412050E9451050895FC0126
:100B0000EA5FFE4F838508952091330130913401CF
:100B1000C90108951092060120E030E006C0F901F5
:100B2000EA5FFE4F13862F5F3F4F80913101909116
:100B300032012817390798F31092340110923301CB
:100B40000895DF93CF930F92CDB7DEB719820E943D
:100B50001404898380910601882319F58981809383
:100B60001001E0913301F09134018981EA5FFE4F79
:100B700083878091330190913401019690933401E1
:100B80008093330120913301309134018091310100
:100B9000909132012817390720F0109234011092F9
:100BA00033010F90CF91DF9108951F920F920FB6EE
:100BB0000F9211242F933F934F935F936F937F93E3
:100BC0008F939F93AF93BF93EF93FF930E94A105E1
:100BD000FF91EF91BF91AF919F918F917F916F9115
:100BE0005F914F913F912F910F900FBE0F901F90EB
:100BF0001895EF92FF920F931F937B018C010E9437
:100C0000B603C801B7010E94D903E1ECF0E080818E
:100C100088608083A2ECB0E096E09C938081806144
:100C200080839C9380818068808378940E948A0569
:100C30001F910F91FF90EF900895A1E21A2EAA1B29
:100C4000BB1BFD010DC0AA1FBB1FEE1FFF1FA2177C
:100C5000B307E407F50720F0A21BB30BE40BF50B79
:100C6000661F771F881F991F1A9469F76095709502
:100C7000809590959B01AC01BD01CF010895F8943A
:020C8000FFCFA4
:060C82000D0A0020000035
:00000001FF
